:1000000099C00000B2C00000B0C00000AEC0000047
:10001000ACC00000AAC0000055C20000A6C000008D
:10002000A4C00000A2C00000A0C0000047C600009D
:100030009CC000009AC0000098C0000096C000005C
:1000400094C0000092C0000090C000008EC000006C
:100050008CC0000062C2000088C0000086C00000A2
:1000600084C0000082C0000080C000007EC000008C
:100070007CC0000026034C005500460041002000D3
:100080004B006500790062006F006100720064003F
:100090002000440065006D006F000000180344005C
:1000A000650061006E002000430061006D00650086
:1000B0007200610000000403090409022900010123
:1000C00000C03209040000020301010009211101EE
:1000D0000001223F00070581030800050705020310
:1000E0000800051201100100000008EB0342200186
:1000F000000102000105010906A101050719E02917
:10010000E7150025017501950881029501750881A3
:1001100001050819012905950575019102950175DB
:1001200003910115002565050719002965950675D8
:10013000088100C011241FBECFEFD4E0DEBFCDBFC9
:1001400011E0A0E0B1E0E0E6F1E102C005900D921F
:10015000A63CB107D9F712E0A6ECB1E001C01D92B0
:10016000A237B107E1F75AD1F9C74ACF599A089592
:10017000589A08952C9A08952D9A0895599808959B
:10018000589808952C9808952D98089581E08093AB
:1001900026010895089542E061EC81E0C2D442E076
:1001A00060EC82E0BED4E2EEF0E080818460808387
:1001B00008958091CF019091D001009729F0019787
:1001C0009093D0018093CF0108951F93CF93DF9335
:1001D00028E0FC0111922A95E9F72091D301213002
:1001E000A1F420916302211110C0EC0112E01093E0
:1001F00063028CD2882339F09AD287FF02C0188319
:100200008F778A8302C01092D301DF91CF911F9123
:100210000895CF93DF93CDB7DEB728970FB6F89444
:10022000DEBF0FBECDBF80916B02833009F440C0AA
:1002300030F4813071F0823009F476C08EC08A309B
:1002400009F459C08B3009F440C0893009F085C0E9
:1002500018C080916A02813A09F07FC0CE010196F0
:10026000B4DF8091E800877F8093E80068E070E069
:10027000CE01019698D38091E8008B778093E800B7
:100280006CC080916A02813209F067C08091E800F9
:10029000877F8093E8008091E80082FD05C080910F
:1002A00069028111F8CF59C08091E8008B7752C064
:1002B00080916A02813A09F050C08091E800877FFE
:1002C0008093E8008091260140C080916A028132CB
:1002D00009F043C08091E800877F8093E80056D4FE
:1002E00081E020916C0230916D02232B09F480E0B3
:1002F0008093260132C080916A02813271F580912B
:10030000E800877F8093E80041D480916C0290914F
:100310006D02882736E0969587953A95E1F7909398
:1003200025018093240119C080916A02813AA9F4C1
:100330008091E800877F8093E8008091240190916C
:10034000250196958795969587958093F1008091E4
:10035000E8008E778093E80019D428960FB6F894B9
:10036000DEBF0FBECDBFDF91CF910895CF93DF9356
:10037000CDB7DEB728970FB6F894DEBF0FBECDBF5E
:10038000CE01019622DF80912401909125010097F2
:1003900061F02091CF013091D001232B31F4909363
:1003A000D0018093CF0121E00CC048E050E0BE01B5
:1003B0006F5F7F4F87EC91E09DD621E0892B09F498
:1003C00020E081E08093E9008091E80085FF17C07C
:1003D0002223A9F088E0FE013196A7ECB1E001905C
:1003E0000D928A95E1F740E050E068E070E0CE01C0
:1003F00001968FD28091E8008E778093E80028964E
:100400000FB6F894DEBF0FBECDBFDF91CF91089538
:1004100080916902843009F4A9CF089590E080E8C2
:100420000FB6F89480936100909361000FBE8AB17B
:1004300083608AB984B1806384B960E086EB90E020
:1004400042D260E08EEB90E047D261E088EB90E032
:100450003AD261E080EC90E03FD262E08AEB90E03B
:1004600032D262E082EC90E037D263E08CEB90E035
:100470002AD263E084EC90E02FD21092D3018AE17B
:1004800091E033D20CD478945C9A85B5846085BDB4
:1004900080916E00816080936E0083E607D133D136
:1004A0005FD18091810081608093810084E890E039
:1004B00044D180916A00886080936A00ED9AA8DF39
:1004C000F3D5FDCF1F920F920FB60F9211242F93E9
:1004D0003F934F935F936F937F938F939F93AF93CC
:1004E000BF93EF93FF93809186012CD18093D40129
:1004F0001092850010928400FF91EF91BF91AF910F
:100500009F918F917F916F915F914F913F912F912B
:100510000F900FBE0F901F9018951F920F920FB65D
:100520000F9211242F933F934F935F936F937F9379
:100530008F939F93AF93BF93EF93FF938091630249
:10054000882319F08150809363020FD18091D301E9
:100550009091D201891771F0882329F0823031F40B
:1005600088E091E002C08AE191E0BFD18091D3019F
:100570008093D2014C9B21C08091D10181FD18C094
:1005800080FF16C062E080E091E0B8D18091D30195
:10059000811105C081E08093D301C6D009C08230AB
:1005A00039F4E091D401F0E0E957FE4F808194D016
:1005B0001092D1011092C60125C08091C6018823F6
:1005C000F1F09091D101292F21602093D101813F39
:1005D000A0F091FD17C093609093D1018091D30159
:1005E000823031F082E08093D30184E65FD00AC08C
:1005F0008AD0B1D01092D30105C08F5F01C081E0D5
:100600008093C601FF91EF91BF91AF919F918F9120
:100610007F916F915F914F913F912F910F900FBEFE
:100620000F901F901895292F332723303105E1F0C3
:100630005CF42130310599F02230310579F589E2F9
:1006400090E02AEB30E02EC02132310511F1223248
:10065000310521F58FE390E025EF30E023C082E102
:1006600090E023EE30E01EC099278130910541F0E3
:100670008230910541F0892B89F4E6EBF0E005C06A
:10068000ECE9F0E002C0E4E7F0E0849190E09F0143
:1006900009C089E090E02CEC30E004C080E090E0FC
:1006A00020E030E0FA013183208308958F5F80934A
:1006B000D6011092D70108958091D601811101C011
:1006C000089580E0E82FF0E0E952FE4F90819923F1
:1006D00011F08F5FF7CF0895CF93C82FEDDF282F4C
:1006E00030E04091D601C901029650E08417950789
:1006F00044F4F901E952FE4FC083F901E852FE4F7C
:100700001082CF91089587ED91E00895E091D50191
:10071000F0E0E952FE4F8081882329F09091D501C5
:100720009F5F9093D50108951092D5010895E82F09
:10073000F0E0E95FFE4F8081089590933C02809342
:100740003B020895682FE0913B02F0913C028081CA
:10075000C5D4892F089544E650E060E070E0E7C416
:1007600044E650E060E070E0D2C4EF92FF920F9355
:100770001F93CF93DF9380916402811198C0E09121
:100780006002F0916102309709F491C0A0915E027D
:10079000B0915F02109709F44BC08C918093640272
:1007A0009DE3E92E92E0F92E0DE412E0C0E0D0E0E6
:1007B000E0915E02F0915F02809162020280F3811B
:1007C000E02DE80FF11D808190E00C2E02C0959580
:1007D00087950A94E2F780FF02C0D80101C0D701D3
:1007E000ED91FC91309709F009952196B2E0EB0E5E
:1007F000F11C0E5F1F4FC830D105D1F68091620207
:100800008F5F80936202E0916002F09161029181BA
:1008100089134DC01092620280915D0281508093D5
:100820005D02811144C010925F0210925E023FC0CF
:100830008081809364028DE3E82E82E0F82E0DE43F
:1008400012E0C0E0D0E0E0916002F091610280919E
:1008500062020280F381E02DE80FF11D808190E0BB
:100860000C2E02C0959587950A94E2F780FF02C08E
:10087000D80101C0D701ED91FC91309709F009959D
:100880002196B2E0EB0EF11C0E5F1F4FC830D10570
:10089000D1F6809162028F5F80936202E0916002E4
:1008A000F09161029181891302C0109262028091DD
:1008B0006402815080936402DF91CF911F910F9168
:1008C000FF90EF900895E62FF0E0EE0FFF1FE35B3F
:1008D000FD4F918380830895E62FF0E0EE0FFF1F18
:1008E000E35CFD4F9183808308951092640210921F
:1008F00062029093610280936002089510926402F4
:100900001092620290935F0280935E0260935D0298
:100910000895CF92DF92EF92FF920F931F93CF93A0
:10092000DF93EC018B017A0150D1811133C0E114C6
:10093000F10439F0F70180819181081B190BC80F70
:10094000D91FC12CD12C0115110519F18091E80096
:1009500085FD16C08091E8008E778093E800A4D3CF
:10096000E114F10449F0F70180819181C80ED91E8C
:10097000D182C08285E00EC028D1882321F30AC02D
:1009800089918093F10001501109FFEFCF1ADF0A1E
:10099000DACF80E0DF91CF911F910F91FF90EF9020
:1009A000DF90CF9008952091700230917102261748
:1009B000370748F06115710539F42091E8002E776A
:1009C0002093E80001C0B90140E06115710591F183
:1009D00020916902222309F440C0253009F43FC068
:1009E0002091E80023FD3DC02091E80022FD2FC0AA
:1009F0002091E80020FFE9CF2091F20030E0FC01D7
:100A0000CF016115710559F02830310540F481910D
:100A10008093F100615071092F5F3F4FF1CF41E0AA
:100A20002830310509F040E02091E8002E7720932E
:100A3000E800CBCF4111CCCF0AC080916902882356
:100A400061F0853061F08091E80083FD0AC08091FB
:100A5000E80082FFF2CF80E0089582E0089583E00D
:100A6000089581E008952091700230917102261757
:100A7000370748F06115710539F42091E8002E77A9
:100A80002093E80001C0B901FC0120E06115710567
:100A900079F180916902882309F43DC0853009F419
:100AA0003CC08091E80083FD3AC08091E80082FD5F
:100AB0002CC08091E80080FFE9CF8091F20090E0A7
:100AC0006115710559F08830910540F42491209307
:100AD000F1003196615071090196F2CF21E008973B
:100AE00009F020E08091E8008E778093E800CECF77
:100AF0002111CFCF0AC080916902882361F085302F
:100B000061F08091E80083FD0AC08091E80082FFD7
:100B1000F2CF80E0089582E0089583E0089581E0B7
:100B20000895982F953058F59093E900981739F06B
:100B30007091EC002091ED005091F00003C0242F43
:100B4000762F50E021FF19C03091EB003E7F3093AB
:100B5000EB003091ED003D7F3093ED003091EB00E4
:100B600031603093EB007093EC002093ED005093D4
:100B7000F0002091EE0027FF07C09F5FD3CF8F705A
:100B80008093E90081E0089580E0089580916A02F1
:100B900087FF11C08091E80082FD05C08091690245
:100BA0008111F8CF11C08091E8008B770BC0809144
:100BB0006902882349F08091E80080FFF8CF809196
:100BC000E8008E778093E80008952091E40030914A
:100BD000E50095E64091EC00842F817040FF22C033
:100BE0008091E80080FD1CC080916902882391F00B
:100BF000853091F08091EB0085FD10C04091E400BC
:100C00005091E5004217530729F39A01915011F7CB
:100C100084E0089582E0089583E0089581E00895D6
:100C200080E008954091E80042FFDECF089540D073
:100C300042D08091D8008F778093D8008091D800DF
:100C400080688093D8008091D8008F7D8093D800F1
:100C500019BC82E089BD09B400FEFDCF1092690283
:100C600010926502109267021092660242E060E004
:100C700080E057DF8091E1008E7F8093E1008091DA
:100C8000E20081608093E2008091E20088608093BE
:100C9000E2008091E0008E7F8093E0000895E3E61B
:100CA000F0E080818E7F808381E080936802BFCFF7
:100CB0001092E20008951092E10008951F920F92A1
:100CC0000FB60F9211242F933F934F935F936F931F
:100CD0007F938F939F93AF93BF93EF93FF938091F5
:100CE000E10082FF0AC08091E20082FF06C080918D
:100CF000E1008B7F8093E1005CDA8091E10080FF6E
:100D000017C08091E20080FF13C08091E2008E7FC7
:100D10008093E2008091E20080618093E200809104
:100D2000D80080628093D80019BC1092690232DA30
:100D30008091E10084FF2EC08091E20084FF2AC0F0
:100D400019BC82E089BD09B400FEFDCF8091D800B6
:100D50008F7D8093D8008091E1008F7E8093E100A9
:100D60008091E2008F7E8093E2008091E2008160BA
:100D70008093E20080916502882311F084E007C02F
:100D80008091E30087FD02C081E001C083E0809391
:100D90006902FCD98091E10083FF22C08091E200CA
:100DA00083FF1EC08091E100877F8093E10082E095
:100DB00080936902109265028091E1008E7F80939A
:100DC000E1008091E2008E7F8093E2008091E2005A
:100DD00080618093E20042E060E080E0A2DE63D1C7
:100DE000FF91EF91BF91AF919F918F917F916F9103
:100DF0005F914F913F912F910F900FBE0F901F90D9
:100E000018951F93CF93DF93CDB7DEB7AA970FB690
:100E1000F894DEBF0FBECDBFEAE6F2E088E08E0FA9
:100E20009091F10091938E13FBCFF3D98091E8005C
:100E300083FF21C180916A0290916B02953009F481
:100E400078C030F4913081F168F0933069F113C1CA
:100E5000983009F4E2C0993009F4F1C0963009F0F5
:100E60000AC189C0803881F0823809F004C18091BC
:100E70006E028F708093E9008091EB0085FB8827DC
:100E800080F91092E90006C0809166029091670295
:100E9000911182609091E800977F9093E800809391
:100EA000F1001092F100C4C0282F2D7F09F0E3C09B
:100EB000882319F0823061F0DEC080916C028130AD
:100EC00009F0D9C0933009F080E0809367022BC00D
:100ED00080916C02811127C080916E028F7009F49D
:100EE000CAC08093E9002091EB0020FF1CC0933022
:100EF00021F48091EB00806214C09091EB0090612E
:100F00009093EB0021E030E0A90102C0440F551F8F
:100F10008A95E2F74093EA001092EA008091EB0094
:100F200088608093EB001092E9008091E800877F51
:100F300082C08111A0C010916C021F778091E300E4
:100F40008078812B8093E3008091E800877F8093F5
:100F5000E8001CDE8091E80080FFFCCF8091E30078
:100F600080688093E300111102C082E001C083E039
:100F70008093690280C08058823008F07CC08091E4
:100F80006C0290916D028C3D53E0950771F583E002
:100F90008A838AE289834FB7F894DE01139620E0B2
:100FA0003EE051E2E32FF0E050935700E49120FF40
:100FB00003C0E295EF703F5FEF708E2F90E0EA3054
:100FC00010F0C79601C0C0968D939D932F5F24317A
:100FD00049F74FBF8091E800877F8093E8006AE27D
:100FE00070E0CE010196DFDC12C0AE014F5F5F4FB3
:100FF00060916E0218DBBC01009709F43CC090912F
:10100000E800977F9093E80089819A812CDD809198
:10101000E8008B778093E8002EC0803861F58091DE
:10102000E800877F8093E800809165028093F1005B
:101030008091E8008E778093E800A8DD1CC08111C4
:101040001AC090916C029230B0F48091E800877FD2
:101050008093E8009093650299DD8091650281118B
:1010600006C08091E30087FD02C081E001C084E0FA
:101070008093690290D88091E80083FF0AC0809134
:10108000E800877F8093E8008091EB008062809386
:10109000EB00AA960FB6F894DEBF0FBECDBFDF916E
:1010A000CF911F9108950895CF938091690288236D
:1010B00099F0C091E900CF709091EC00892F817078
:1010C00090FD80E8C82B1092E9008091E80083FD34
:1010D00098DECF70C093E900CF910895991B79E015
:1010E00004C0991F961708F0961B881F7A95C9F7B8
:1010F00080950895FB01DC0104C08D910190801959
:1011000021F441505040C8F7881B990B0895DC0129
:10111000CB01FC01F999FECF06C0F2BDE1BDF89A02
:10112000319600B40D9241505040B8F70895DC015B
:10113000CB0102C02D9105D041505040D8F7089501
:10114000262FF999FECF1FBA92BD81BD20BD0FB6E3
:10115000F894FA9AF99A0FBE01960895F894FFCF81
:10116000040404010F000F0032020C0101000A0800
:1011700012010103070F0E0C080064011E01023268
:101180000123010FF401012C9EB4A0A1A2A434A656
:10119000A7A5AE362D3738271E1F20212223242550
:1011A00026B333B62EB7B89F8485868788898A8B05
:1011B0008C8D8E8F909192939495969798999A9BF7
:1011C0009C9D2F3130A3AD350405060708090A0B95
:1011D0000C0D0E0F101112131415161718191A1BD7
:1011E0001C1DAFB1B0B53E313233343536373839E6
:1011F000306162636465666768696A6B6C6D6F70A5
:101200007172737475767778797A414243444546B2
:101210004748494A4B4C4D4E4F50515253545556E6
:061220005758595A000066
:00000001FF
