:1000000099C00000B2C00000B0C00000AEC0000047
:10001000ACC00000AAC0000056C20000A6C000008C
:10002000A4C00000A2C00000A0C0000044C60000A0
:100030009CC000009AC0000098C0000096C000005C
:1000400094C0000092C0000090C000008EC000006C
:100050008CC0000062C2000088C0000086C00000A2
:1000600084C0000082C0000080C000007EC000008C
:100070007CC0000026034C005500460041002000D3
:100080004B006500790062006F006100720064003F
:100090002000440065006D006F000000180344005C
:1000A000650061006E002000430061006D00650086
:1000B0007200610000000403090409022900010123
:1000C00000C03209040000020301010009211101EE
:1000D0000001223F00070581030800050705020310
:1000E0000800051201100100000008EB0342200186
:1000F000000102000105010906A101050719E02917
:10010000E7150025017501950881029501750881A3
:1001100001050819012905950575019102950175DB
:1001200003910115002565050719002965950675D8
:10013000088100C011241FBECFEFD2E0DEBFCDBFCB
:1001400011E0A0E0B1E0EAE5F1E102C005900D9216
:10015000A038B107D9F712E0A0E8B1E001C01D92C4
:10016000AC32B107E1F75BD1F6C74ACF589A089590
:10017000599A0895469A0895479A08955898089567
:1001800059980895469808954798089581E0809376
:100190001F010895089542E061EC81E0BFD442E080
:1001A00060EC82E0BBD4E2EEF0E08081846080838A
:1001B00008958091890190918A01009729F0019713
:1001C00090938A018093890108951F93CF93DF93C1
:1001D00028E0FC0111922A95E9F720918D01213048
:1001E000A9F420911D02211111C0EC0112E010931D
:1001F0001D0289D2882341F090E096D287FF02C089
:1002000018838F778A8302C010928D01DF91CF917E
:100210001F910895CF93DF93CDB7DEB728970FB620
:10022000F894DEBF0FBECDBF80912502833009F464
:1002300040C030F4813071F0823009F476C08EC055
:100240008A3009F459C08B3009F440C0893009F074
:1002500085C018C080912402813A09F07FC0CE0188
:100260000196B3DF8091E800877F8093E80068E023
:1002700070E0CE01019694D38091E8008B77809353
:10028000E8006CC080912402813209F067C080913F
:10029000E800877F8093E8008091E80082FD05C038
:1002A000809123028111F8CF59C08091E8008B77AB
:1002B00052C080912402813A09F050C08091E80038
:1002C000877F8093E80080911F0140C080912402C5
:1002D000813209F043C08091E800877F8093E80075
:1002E00052D481E02091260230912702232B09F479
:1002F00080E080931F0132C080912402813271F529
:100300008091E800877F8093E8003DD480912602A9
:1003100090912702882736E0969587953A95E1F7E0
:1003200090931E0180931D0119C080912402813A8F
:10033000A9F48091E800877F8093E80080911D01F7
:1003400090911E0196958795969587958093F100DB
:100350008091E8008E778093E80015D428960FB638
:10036000F894DEBF0FBECDBFDF91CF910895CF933C
:10037000DF93CDB7DEB728970FB6F894DEBF0FBE78
:10038000CDBFCE01019621DF80911D0190911E010C
:10039000009761F02091890130918A01232B31F47B
:1003A00090938A018093890121E00CC048E050E0DD
:1003B000BE016F5F7F4F81E891E099D621E0892BE4
:1003C00009F420E081E08093E9008091E80085FF56
:1003D00017C02223A9F088E0FE013196A1E8B1E020
:1003E00001900D928A95E1F740E050E068E070E0FE
:1003F000CE0101968BD28091E8008E778093E80041
:1004000028960FB6F894DEBF0FBECDBFDF91CF9117
:10041000089580912302843009F4A9CF089590E0D3
:1004200080E80FB6F89480936100909361000FBE4E
:100430008AB183608AB987B1806C87B960E086EB46
:1004400090E03ED260E08EEB90E043D261E088EB3A
:1004500090E036D261E080EC90E03BD262E08AEB43
:1004600090E02ED262E082EC90E033D263E08CEB3D
:1004700090E026D263E084EC90E02BD210928D01C4
:1004800082E191E02FD208D478945C9A85B584609B
:1004900085BD80916E00816080936E0083E603D1FC
:1004A0002FD15BD18091810081608093810084E8AD
:1004B00090E040D180916A00886080936A00ED9A54
:1004C000A8DFEFD5FDCF1F920F920FB60F92112428
:1004D0002F933F934F935F936F937F938F939F934C
:1004E000AF93BF93EF93FF938FE529D180938E0154
:1004F0001092850010928400FF91EF91BF91AF910F
:100500009F918F917F916F915F914F913F912F912B
:100510000F900FBE0F901F9018951F920F920FB65D
:100520000F9211242F933F934F935F936F937F9379
:100530008F939F93AF93BF93EF93FF9380911D028F
:10054000882319F0815080931D020CD180918D0178
:1005500090918C01891771F0882329F0823031F451
:1005600086E091E002C082E191E0BCD180918D01F2
:1005700080938C014C9B1EC080918B0181FD15C026
:1005800080FF13C062E080E091E0B5D180918D01E1
:10059000811105C081E080938D01C3D006C08230F7
:1005A00021F480918E01805E94D010928B01109284
:1005B000800125C0809180018823F1F090918B010A
:1005C000292F216020938B01813FA0F091FD17C05E
:1005D000936090938B0180918D01823031F082E0A5
:1005E00080938D0184E65FD00AC08AD0B1D010928A
:1005F0008D0105C08F5F01C081E080938001FF9174
:10060000EF91BF91AF919F918F917F916F915F918A
:100610004F913F912F910F900FBE0F901F90189503
:10062000292F332723303105E1F05CF421303105E7
:1006300099F02230310579F589E290E02AEB30E03B
:100640002EC02132310511F12232310521F58FE31F
:1006500090E025EF30E023C082E190E023EE30E02F
:100660001EC099278130910541F08230910541F0FB
:10067000892B89F4E6EBF0E005C0ECE9F0E002C07C
:10068000E4E7F0E0849190E09F0109C089E090E008
:100690002CEC30E004C080E090E020E030E0FA0193
:1006A0003183208308958F5F809390011092910190
:1006B000089580919001811101C0089580E0E82F94
:1006C000F0E0EF56FE4F9081992311F08F5FF7CF46
:1006D0000895CF93C82FEDDF282F30E0409190018F
:1006E000C901029650E08417950744F4F901EF56CA
:1006F000FE4FC083F901EE56FE4F1082CF91089550
:1007000081E991E00895E0918F01F0E0EF56FE4F0E
:100710008081882329F090918F019F5F90938F01B2
:10072000089510928F010895E82FF0E0E050FF4FF8
:10073000808108959093F6018093F5010895682FC4
:10074000E091F501F091F6018081C5D4892F0895DB
:1007500044E650E060E070E0E7C444E650E060E06A
:1007600070E0D2C4EF92FF920F931F93CF93DF9369
:1007700080911E02811198C0E0911A02F0911B0233
:10078000309709F491C0A0911802B0911902109706
:1007900009F44BC08C9180931E0297EFE92E91E0F3
:1007A000F92E07E012E0C0E0D0E0E0911802F091ED
:1007B000190280911C020280F381E02DE80FF11DE7
:1007C000808190E00C2E02C0959587950A94E2F7FF
:1007D00080FF02C0D80101C0D701ED91FC91309794
:1007E00009F009952196B2E0EB0EF11C0E5F1F4F48
:1007F000C830D105D1F680911C028F5F80931C0216
:10080000E0911A02F0911B02918189134DC0109260
:100810001C0280911702815080931702811144C0FD
:1008200010921902109218023FC0808180931E021C
:1008300087EFE82E81E0F82E07E012E0C0E0D0E07C
:10084000E0911A02F0911B0280911C020280F38158
:10085000E02DE80FF11D808190E00C2E02C09595EF
:1008600087950A94E2F780FF02C0D80101C0D70142
:10087000ED91FC91309709F009952196B2E0EB0ECD
:10088000F11C0E5F1F4FC830D105D1F680911C02BC
:100890008F5F80931C02E0911A02F0911B029181FC
:1008A000891302C010921C0280911E028150809315
:1008B0001E02DF91CF911F910F91FF90EF9008954D
:1008C000E62FF0E0EE0FFF1FE95FFD4F918380837D
:1008D0000895E62FF0E0EE0FFF1FE950FE4F9183E1
:1008E0008083089510921E0210921C0290931B02A6
:1008F00080931A02089510921E0210921C02909387
:10090000190280931802609317020895CF92DF9224
:10091000EF92FF920F931F93CF93DF93EC018B0124
:100920007A0150D1811133C0E114F10439F0F7019B
:1009300080819181081B190BC80FD91FC12CD12CA4
:100940000115110519F18091E80085FD16C080910F
:10095000E8008E778093E800A4D3E114F10449F015
:10096000F70180819181C80ED91ED182C08285E0B5
:100970000EC028D1882321F30AC089918093F10009
:1009800001501109FFEFCF1ADF0ADACF80E0DF91C3
:10099000CF911F910F91FF90EF90DF90CF9008952E
:1009A00020912A0230912B022617370748F0611553
:1009B000710539F42091E8002E772093E80001C0FA
:1009C000B90140E06115710591F1209123022223C4
:1009D00009F440C0253009F43FC02091E80023FD10
:1009E0003DC02091E80022FD2FC02091E80020FFAB
:1009F000E9CF2091F20030E0FC01CF0161157105D3
:100A000059F02830310540F481918093F100615014
:100A100071092F5F3F4FF1CF41E02830310509F0D8
:100A200040E02091E8002E772093E800CBCF4111E1
:100A3000CCCF0AC080912302882361F0853061F019
:100A40008091E80083FD0AC08091E80082FFF2CF28
:100A500080E0089582E0089583E0089581E008959C
:100A600020912A0230912B022617370748F0611592
:100A7000710539F42091E8002E772093E80001C039
:100A8000B901FC0120E06115710579F18091230223
:100A9000882309F43DC0853009F43CC08091E8000A
:100AA00083FD3AC08091E80082FD2CC08091E8006F
:100AB00080FFE9CF8091F20090E06115710559F057
:100AC0008830910540F424912093F10031966150D3
:100AD00071090196F2CF21E0089709F020E080919A
:100AE000E8008E778093E800CECF2111CFCF0AC0E7
:100AF00080912302882361F0853061F08091E800C5
:100B000083FD0AC08091E80082FFF2CF80E0089563
:100B100082E0089583E0089581E00895982F95304C
:100B200058F59093E900981739F07091EC002091F6
:100B3000ED005091F00003C0242F762F50E021FFEC
:100B400019C03091EB003E7F3093EB003091ED0007
:100B50003D7F3093ED003091EB0031603093EB003E
:100B60007093EC002093ED005093F0002091EE0084
:100B700027FF07C09F5FD3CF8F708093E90081E08C
:100B8000089580E008958091240287FF11C080912C
:100B9000E80082FD05C0809123028111F8CF11C0C9
:100BA0008091E8008B770BC080912302882349F065
:100BB0008091E80080FFF8CF8091E8008E778093E5
:100BC000E80008952091E4003091E50095E6409119
:100BD000EC00842F817040FF22C08091E80080FDEE
:100BE0001CC080912302882391F0853091F0809180
:100BF000EB0085FD10C04091E4005091E5004217E4
:100C0000530729F39A01915011F784E0089582E087
:100C1000089583E0089581E0089580E0089540916B
:100C2000E80042FFDECF089540D042D08091D80046
:100C30008F778093D8008091D80080688093D80007
:100C40008091D8008F7D8093D80019BC82E089BD47
:100C500009B400FEFDCF1092230210921F021092E1
:100C600021021092200242E060E080E057DF809194
:100C7000E1008E7F8093E1008091E20081608093AB
:100C8000E2008091E20088608093E2008091E000C1
:100C90008E7F8093E0000895E3E6F0E080818E7F10
:100CA000808381E080932202BFCF1092E2000895FA
:100CB0001092E10008951F920F920FB60F92112427
:100CC0002F933F934F935F936F937F938F939F9354
:100CD000AF93BF93EF93FF938091E10082FF0AC02F
:100CE0008091E20082FF06C08091E1008B7F8093BB
:100CF000E1005FDA8091E10080FF17C08091E2009F
:100D000080FF13C08091E2008E7F8093E20080918B
:100D1000E20080618093E2008091D800806280933D
:100D2000D80019BC1092230235DA8091E10084FFCB
:100D30002EC08091E20084FF2AC019BC82E089BDE8
:100D400009B400FEFDCF8091D8008F7D8093D8003C
:100D50008091E1008F7E8093E1008091E2008F7EA0
:100D60008093E2008091E20081608093E2008091B4
:100D70001F02882311F084E007C08091E30087FD03
:100D800002C081E001C083E080932302FFD98091FB
:100D9000E10083FF22C08091E20083FF1EC08091AA
:100DA000E100877F8093E10082E08093230210922C
:100DB0001F028091E1008E7F8093E1008091E2002C
:100DC0008E7F8093E2008091E20080618093E20058
:100DD00042E060E080E0A2DE63D1FF91EF91BF913D
:100DE000AF919F918F917F916F915F914F913F91C3
:100DF0002F910F900FBE0F901F9018951F93CF93B8
:100E0000DF93CDB7DEB7AA970FB6F894DEBF0FBE5B
:100E1000CDBFE4E2F2E088E08E0F9091F100919373
:100E20008E13FBCFF7D98091E80083FF21C1809119
:100E3000240290912502953009F478C030F4913065
:100E400081F168F0933069F113C1983009F4E2C080
:100E5000993009F4F1C0963009F00AC189C0803890
:100E600081F0823809F004C1809128028F7080934C
:100E7000E9008091EB0085FB882780F91092E9005A
:100E800006C0809120029091210291118260909180
:100E9000E800977F9093E8008093F1001092F100B2
:100EA000C4C0282F2D7F09F0E3C0882319F08230B9
:100EB00061F0DEC080912602813009F0D9C0933004
:100EC00009F080E0809321022BC0809126028111DD
:100ED00027C0809128028F7009F4CAC08093E9006E
:100EE0002091EB0020FF1CC0933021F48091EB0097
:100EF000806214C09091EB0090619093EB0021E030
:100F000030E0A90102C0440F551F8A95E2F74093D3
:100F1000EA001092EA008091EB0088608093EB0079
:100F20001092E9008091E800877F82C08111A0C003
:100F3000109126021F778091E3008078812B8093A7
:100F4000E3008091E800877F8093E8001CDE8091B9
:100F5000E80080FFFCCF8091E30080688093E3008D
:100F6000111102C082E001C083E08093230280C09F
:100F70008058823008F07CC0809126029091270230
:100F80008C3D53E0950771F583E08A838AE289837B
:100F90004FB7F894DE01139620E03EE051E2E32FD4
:100FA000F0E050935700E49120FF03C0E295EF700A
:100FB0003F5FEF708E2F90E0EA3010F0C79601C0CF
:100FC000C0968D939D932F5F243149F74FBF809139
:100FD000E800877F8093E8006AE270E0CE01019626
:100FE000DFDC12C0AE014F5F5F4F6091280218DB5B
:100FF000BC01009709F43CC09091E800977F909362
:10100000E80089819A812CDD8091E8008B778093BC
:10101000E8002EC0803861F58091E800877F8093DA
:10102000E80080911F028093F1008091E8008E77A4
:101030008093E800A8DD1CC081111AC0909126029F
:101040009230B0F48091E800877F8093E80090931D
:101050001F0299DD80911F02811106C08091E3007B
:1010600087FD02C081E001C084E08093230293D811
:101070008091E80083FF0AC08091E800877F809319
:10108000E8008091EB0080628093EB00AA960FB697
:10109000F894DEBF0FBECDBFDF91CF911F910895B1
:1010A0000895CF9380912302882399F0C091E9009D
:1010B000CF709091EC00892F817090FD80E8C82B53
:1010C0001092E9008091E80083FD98DECF70C09314
:1010D000E900CF910895991B79E004C0991F9617F4
:1010E00008F0961B881F7A95C9F780950895FB0133
:1010F000DC0104C08D910190801921F441505040D1
:10110000C8F7881B990B0895DC01CB01FC01F99904
:10111000FECF06C0F2BDE1BDF89A319600B40D9243
:1011200041505040B8F70895DC01CB0102C02D9129
:1011300005D041505040D8F70895262FF999FECF99
:101140001FBA92BD81BD20BD0FB6F894FA9AF99AE4
:0A1150000FBE01960895F894FFCF3A
:10115A00050204010F000A080A010103070F0E0C19
:10116A00080032021601010232011C010FF40101CA
:10117A002C9EB4A0A1A2A434A6A7A5AE362D3738BA
:10118A00271E1F20212223242526B333B62EB7B8C3
:10119A009F8485868788898A8B8C8D8E8F90919281
:1011AA00939495969798999A9B9C9D2F3130A3ADCD
:1011BA00350405060708090A0B0C0D0E0F1011124B
:1011CA00131415161718191A1B1C1DAFB1B0B50048
:00000001FF
